:020000040800F2
:100000000000012061250008A1240008A3240008A5
:10001000A5240008A7240008A92400080000000067
:10002000000000000000000000000000915A0008DD
:10003000AB24000800000000215B0008655B00089D
:10004000A9250008A9250008A9250008A925000858
:10005000A9250008A9250008A9250008A925000848
:10006000A9250008A9250008A9250008A925000838
:10007000A9250008A9250008A9250008A925000828
:10008000A9250008A9250008A9250008A925000818
:10009000A9250008A9250008A9250008A925000808
:1000A000A9250008A9250008A9250008A9250008F8
:1000B000A9250008A9250008AD240008A9250008E5
:1000C000A9250008A9250008A9250008A9250008D8
:1000D000A9250008A9250008A9250008B9240008B9
:1000E000A9250008A9250008A9250008A9250008B8
:1000F000A9250008A9250008A9250008A9250008A8
:10010000A9250008A9250008A9250008A925000897
:10011000A9250008A9250008C5240008A92500086C
:10012000A9250008A9250008A9250008A925000877
:1001300000000000000000000000000000000000BF
:1001400000000000000000000000000000000000AF
:10015000000000000000000000000000000000009F
:10016000000000000000000000000000000000008F
:10017000000000000000000000000000000000007F
:10018000000000000000000000000000000000006F
:10019000000000000000000000000000000000005F
:1001A000000000000000000000000000000000004F
:1001B000000000000000000000000000000000003F
:1001C000000000000000000000000000000000002F
:1001D000000000000000000000000000000000001F
:0401E0005FF8E0F1F3
:1001F00010B5054C237833B9044B13B10448AFF361
:1002000000800123237010BDBC000020000000000E
:100210006475000808B5034B1BB103490348AFF3ED
:10022000008008BD00000000C000002064750008C8
:1002300081F0004102E000BF83F0004330B54FEA97
:1002400041044FEA430594EA050F08BF90EA020F04
:100250001FBF54EA000C55EA020C7FEA645C7FEA97
:10026000655C00F0E2804FEA5454D4EB5555B8BFBA
:100270006D420CDD2C4480EA020281EA030382EA2B
:10028000000083EA010180EA020281EA0303362DBD
:1002900088BF30BD11F0004F4FEA01314FF4801C90
:1002A0004CEA113102D0404261EB410113F0004FA2
:1002B0004FEA03334CEA133302D0524263EB430359
:1002C00094EA050F00F0A780A4F10104D5F1200EF7
:1002D0000DDB02FA0EFC22FA05F2801841F1000152
:1002E00003FA0EF2801843FA05F359410EE0A5F126
:1002F00020050EF1200E012A03FA0EFC28BF4CF057
:10030000020C43FA05F3C01851EBE37101F000450C
:1003100007D54FF0000EDCF1000C7EEB00006EEB19
:100320000101B1F5801F1BD3B1F5001F0CD34908A3
:100330005FEA30004FEA3C0C04F101044FEA4452FA
:1003400012F5800F80F09A80BCF1004F08BF5FEA81
:10035000500C50F1000041EB045141EA050130BD61
:100360005FEA4C0C404141EB0101013C28BFB1F573
:10037000801FE9D291F0000F04BF01460020B1FABE
:1003800081F308BF2033A3F10B03B3F120020CDA91
:100390000C3208DD02F1140CC2F10C0201FA0CF06F
:1003A00021FA02F10CE002F11402D8BFC2F1200CD4
:1003B00001FA02F120FA0CFCDCBF41EA0C0190408A
:1003C000E41AA2BF01EB0451294330BD6FEA0404D3
:1003D0001F3C1CDA0C340EDC04F11404C4F12002BE
:1003E00020FA04F001FA02F340EA030021FA04F3D0
:1003F00045EA030130BDC4F10C04C4F1200220FA27
:1004000002F001FA04F340EA0300294630BD21FA64
:1004100004F0294630BD94F0000F83F4801306BF2A
:1004200081F480110134013D4EE77FEA645C18BF1E
:100430007FEA655C29D094EA050F08BF90EA020FB5
:1004400005D054EA000C04BF1946104630BD91EAAD
:10045000030F1EBF0021002030BD5FEA545C05D1B0
:100460004000494128BF41F0004130BD14F58004EF
:100470003CBF01F5801130BD01F0004545F0FE4163
:1004800041F470014FF0000030BD7FEA645C1ABF98
:10049000194610467FEA655C1CBF0B46024650EACF
:1004A000013406BF52EA033591EA030F41F40021FB
:1004B00030BD00BF90F0000F04BF0021704730B581
:1004C0004FF4806404F132044FF000054FF0000156
:1004D00050E700BF90F0000F04BF0021704730B517
:1004E0004FF4806404F1320410F0004548BF4042EC
:1004F0004FF000013EE700BF42004FEAE2014FEA41
:1005000031014FEA02701FBF12F07F4393F07F4F1B
:1005100081F06051704732F07F4208BF704793F01E
:100520007F4F04BF41F40021704730B54FF4607431
:1005300001F0004521F000411CE700BF50EA010234
:1005400008BF704730B54FF000050AE050EA0102DD
:1005500008BF704730B511F0004502D5404261EB4D
:1005600041014FF4806404F132045FEA915C3FF48E
:10057000D8AE4FF003025FEADC0C18BF03325FEA2B
:10058000DC0C18BF033202EBDC02C2F1200300FADC
:1005900003FC20FA02F001FA03FE40EA0E0021FA01
:1005A00002F11444BDE600BF70B54FF0FF0C4CF4EF
:1005B000E06C1CEA11541DBF1CEA135594EA0C0FA1
:1005C00095EA0C0F00F0DEF82C4481EA030621EADC
:1005D0004C5123EA4C5350EA013518BF52EA033517
:1005E00041F4801143F4801338D0A0FB02CE4FF0C9
:1005F0000005E1FB02E506F00042E0FB03E54FF0F9
:100600000006E1FB03569CF0000F18BF4EF0010EF0
:10061000A4F1FF04B6F5007F64F5407404D25FEAEC
:100620004E0E6D4146EB060642EAC62141EA55519F
:100630004FEAC52040EA5E504FEACE2EB4F1FD0CE1
:1006400088BFBCF5E06F1ED8BEF1004F08BF5FEA5F
:10065000500E50F1000041EB045170BD06F0004611
:1006600046EA010140EA020081EA0301B4EB5C04BE
:10067000C2BFD4EB0C0541EA045170BD41F48011B6
:100680004FF0000E013C00F3AB8014F1360FDEBFDB
:10069000002001F0004170BDC4F10004203C35DAB7
:1006A0000C341BDC04F11404C4F1200500FA05F33A
:1006B00020FA04F001FA05F240EA020001F00042DB
:1006C00021F0004110EBD37021FA04F642EB060151
:1006D0005EEA430E08BF20EAD37070BDC4F10C047B
:1006E000C4F1200500FA04F320FA05F001FA04F23F
:1006F00040EA020001F0004110EBD37041F100012B
:100700005EEA430E08BF20EAD37070BDC4F1200535
:1007100000FA05F24EEA020E20FA04F301FA05F29D
:1007200043EA020321FA04F001F0004121FA04F245
:1007300020EA020000EBD3705EEA430E08BF20EA15
:10074000D37070BD94F0000F0FD101F0004640004F
:1007500041EB010111F4801F08BF013CF7D041EAD1
:10076000060195F0000F18BF704703F000465200D5
:1007700043EB030313F4801F08BF013DF7D043EAA6
:100780000603704794EA0C0F0CEA135518BF95EA5C
:100790000C0F0CD050EA410618BF52EA4306D1D1E3
:1007A00081EA030101F000414FF0000070BD50EA02
:1007B000410606BF1046194652EA430619D094EA8C
:1007C0000C0F02D150EA013613D195EA0C0F05D176
:1007D00052EA03361CBF104619460AD181EA0301CA
:1007E00001F0004141F0FE4141F470014FF0000082
:1007F00070BD41F0FE4141F4780170BD70B54FF01D
:10080000FF0C4CF4E06C1CEA11541DBF1CEA13559C
:1008100094EA0C0F95EA0C0F00F0A7F8A4EB05047E
:1008200081EA030E52EA03354FEA013100F0888075
:100830004FEA03334FF0805545EA131343EA12633E
:100840004FEA022245EA111545EA10654FEA0026F3
:100850000EF000419D4208BF964244F1FD0404F5AC
:10086000407402D25B084FEA3202B61A65EB030508
:100870005B084FEA32024FF480104FF4002CB6EBC5
:10088000020E75EB030E22BFB61A754640EA0C0045
:100890005B084FEA3202B6EB020E75EB030E22BF85
:1008A000B61A754640EA5C005B084FEA3202B6EBC6
:1008B000020E75EB030E22BFB61A754640EA9C0085
:1008C0005B084FEA3202B6EB020E75EB030E22BF55
:1008D000B61A754640EADC0055EA060E18D04FEA13
:1008E000051545EA16754FEA06164FEAC30343EAB3
:1008F00052734FEAC2025FEA1C1CC0D111F4801F80
:100900000BD141EA00014FF000004FF0004CB6E778
:1009100011F4801F04BF01430020B4F1FD0C88BF17
:10092000BCF5E06F3FF6AFAEB5EB030C04BFB6EB22
:10093000020C5FEA500C50F1000041EB045170BD15
:100940000EF0004E4EEA113114EB5C04C2BFD4EB42
:100950000C0541EA045170BD41F480114FF0000EC6
:10096000013C90E645EA060E8DE60CEA135594EA42
:100970000C0F08BF95EA0C0F3FF43BAF94EA0C0F45
:100980000AD150EA01347FF434AF95EA0C0F7FF4BA
:1009900025AF104619462CE795EA0C0F06D152EA0E
:1009A00003353FF4FDAE1046194622E750EA4106F2
:1009B00018BF52EA43067FF4C5AE50EA41047FF403
:1009C0000DAF52EA43057FF4EBAE12E74FEA410266
:1009D00012F5001215D211D56FF47873B3EB625291
:1009E00012D94FEAC12343F0004343EA505311F0B8
:1009F000004F23FA02F018BF404270474FF000004A
:100A0000704750EA013005D111F0004008BF6FF087
:100A1000004070474FF00000704700BF4A0011D2FD
:100A200012F5001211D20DD56FF47873B3EB625248
:100A30000ED44FEAC12343F0004343EA505323FA54
:100A400002F070474FF00000704750EA013002D1C9
:100A50004FF0FF3070474FF0000070474FEA4102FF
:100A6000B2F1E04324BFB3F5001CDCF1FE5C0DD90C
:100A700001F0004C4FEAC0024CEA5070B2F1004F56
:100A800040EB830008BF20F00100704711F0804F59
:100A900021D113F13872BCBF01F00040704741F41E
:100AA00080114FEA5252C2F11802C2F1200C10FA22
:100AB0000CF320FA02F018BF40F001004FEAC12306
:100AC0004FEAD32303FA0CFC40EA0C0023FA02F3AA
:100AD0004FEA4303CCE77FEA625307D150EA013380
:100AE0001EBF4FF0FE4040F44000704701F0004050
:100AF00040F0FE4040F40000704700BF80F000402E
:100B000002E000BF81F0004142001FBF5FEA4103E5
:100B100092EA030F7FEA226C7FEA236C6AD04FEAE5
:100B20001262D2EB1363C1BFD2184140484041402A
:100B3000B8BF5B42192B88BF704710F0004F40F4DC
:100B4000000020F07F4018BF404211F0004F41F4F8
:100B5000000121F07F4118BF494292EA030F3FD0C4
:100B6000A2F1010241FA03FC10EB0C00C3F12003D7
:100B700001FA03F100F0004302D5494260EB400066
:100B8000B0F5000F13D3B0F1807F06D340084FEAD1
:100B9000310102F10102FE2A51D2B1F1004F40EBC6
:100BA000C25008BF20F0010040EA0300704749002E
:100BB00040EB0000013A28BFB0F5000FEDD2B0FACB
:100BC00080FCACF1080CB2EB0C0200FA0CF0AABFEE
:100BD00000EBC25052421843BCBFD040184370478C
:100BE00092F0000F81F4000106BF80F40000013292
:100BF000013BB5E74FEA41037FEA226C18BF7FEA69
:100C0000236C21D092EA030F04D092F0000F08BFAA
:100C10000846704790EA010F1CBF0020704712F091
:100C20007F4F04D1400028BF40F00040704712F1D0
:100C300000723CBF00F50000704700F0004343F035
:100C4000FE4040F4000070477FEA226216BF08466B
:100C50007FEA23630146420206BF5FEA412390EA2E
:100C6000010F40F4800070474FF0000304E000BF24
:100C700010F0004348BF40425FEA000C08BF7047D5
:100C800043F0964301464FF000001CE050EA010299
:100C900008BF70474FF000030AE000BF50EA0102AE
:100CA00008BF704711F0004302D5404261EB41019B
:100CB0005FEA010C02BF84460146002043F0B643C0
:100CC00008BFA3F18053A3F50003BCFA8CF2083AE5
:100CD000A3EBC25310DB01FA02FC634400FA02FCEE
:100CE000C2F12002BCF1004F20FA02F243EB0200F5
:100CF00008BF20F00100704702F1200201FA02FC57
:100D0000C2F1200250EA4C0021FA02F243EB020049
:100D100008BF20EADC70704742000ED2B2F1FE4FED
:100D20000BD34FF09E03B3EB126209D44FEA0023BA
:100D300043F0004323FA02F070474FF00000704781
:100D400012F1610F01D1420202D14FF0FF30704722
:100D50004FF00000704700BF08B5012003F05AFCB7
:100D6000FBE7000080B500214A4803F059F84A4EDD
:100D70000421484803F054F80C21484803F050F887
:100D80003746474C3368012B47D1464B434DD3E997
:100D90000001FFF743FED5F80080C8F84000DFF8F7
:100DA0001C814FF4967003F035FCD8F80030012B0D
:100DB00011D14A222B6864201A6403F02BFC4722CD
:100DC0002B6864201A6403F025FC48222B681A64FF
:100DD0000023C8F80030DFF8E880D8F80030012B95
:100DE00011D14A222B6864201A6403F013FC4722B5
:100DF0002B6864201A6403F00DFC48222B681A64E7
:100E00000023C8F80030322003F004FC0123264AF6
:100E10001360264A136000233B60254B1D687DB993
:100E20001C4B1D68234B1868FFF776FF224B686345
:100E30001868FFF771FFA863012003F0EBFBA1E73F
:100E4000012D14D12A460421204601F05FFF2A46D5
:100E50002021204601F05AFF00220821204601F0FF
:100E600055FF00221021204601F050FFD8E7022D47
:100E7000E2D100220421204601F048FF0022202177
:100E8000204601F043FF01220821204601F03EFFE9
:100E90000122E7E73C2700200801002048A60020A7
:100EA000000801400800002004010020000100208B
:100EB0003CA60020E8A60020ECA600202801002087
:100EC0002401002000B51A4D1A4C95B021462A681D
:100ED00004A805F0DFFA002104AA084605F0A6F8E8
:100EE000154B16491A680CA805F0D4FA0CAA0A2169
:100EF000002005F09BF8124B12491A680CA805F067
:100F0000C9FA0CAA1421002005F090F80E4B68468F
:100F10001A680E4905F0BEFA6A462821002005F03D
:100F200085F804F0E9FF012003F074FBCEE700BF71
:100F3000F4A600207C7500081001002086750008CA
:100F4000382700209175000858A500209B750008DF
:100F500010B596B0182200210DA805F04FF9142203
:100F6000002101A805F04AF9182200210DEB02002A
:100F700005F044F9012210230224CDE910230023B7
:100F80000CA8CDE914330C94139401F0D1FE014662
:100F900008B172B6FEE70F23CDE901344FF4806348
:100FA0000390CDE9043001A802F098F808B172B6B8
:100FB000FEE7089006A8069402F06AF908B172B636
:100FC000FEE716B010BD000080B59CB001F042FBFA
:100FD000FFF7BEFF1022002113A805F00FF9AB4B5D
:100FE0004FF4BC619A69AA4842F040029A619A693A
:100FF000002502F040020192019A9A69012642F00E
:1010000010029A619A69022402F010020292029A76
:101010009A69032742F004029A619A694FF40058D2
:1010200002F004020392039A9A6942F020029A6144
:101030009A6902F020020492049A9A6942F0080226
:101040009A619B69002203F008030593059B01F058
:101050005DFE00223C218F4801F058FE00224FF433
:1010600000518D4801F052FE4FF4BC63884813A92B
:10107000CDE91336CDE9155401F05EFD0C2385480A
:1010800013A9CDE913361595169701F055FD3023B8
:10109000804813A9CDE91336CDE9155401F04CFD74
:1010A0007D4813A9CDE91554CDE9138601F044FD1F
:1010B0004FF48043774813A9CDE9133701F03CFD85
:1010C0001022294608A805F099F81C2229460CA8E8
:1010D000CDE9065505F092F82022294613A805F01F
:1010E0008DF86E4C6E4B2046C4E9003541F61F4327
:1010F000C4E90555C4E90335A56002F065FB08B1F4
:1011000072B6FEE74FF48053204608A9089302F018
:1011100087FD08B172B6FEE7204602F081FB08B1F8
:1011200072B6FEE7CDE9060006A9204602F0F2FEFF
:10113000024608B172B6FEE76023CDE90E00CDE9A4
:101140000C30CDE9100012900CA9204602F04CFCA6
:1011500008B172B6FEE7042220460CA902F044FC56
:1011600008B172B6FEE7CDE91300CDE91500CDE96F
:1011700017081A9013A9204602F002FF08B172B6B0
:10118000FEE74FF08043474CCDE90C00C4E9003046
:101190004FF6FF73C4E903300A23CDE91370CDE99C
:1011A0001560CDE91730CDE91960A060A0611B90F2
:1011B00013A9204602F08CFB08B172B6FEE7CDE918
:1011C0000C000CA9204602F0A5FE044608B172B638
:1011D000FEE70146102208A805F010F81C2221465F
:1011E0000CA8CDE9064405F009F82146202213A8F1
:1011F00005F004F8A0232C482C498460C0E90013B2
:101200004FF47A73C0E9033480234461836102F0B0
:10121000DBFA08B172B6FEE74FF48053224808A902
:10122000089302F0FDFC08B172B6FEE71E4802F01A
:10123000F7FA08B172B6FEE7CDE9060006A91A482A
:1012400002F068FE08B172B6FEE76023CDE9100037
:10125000CDE90C300E9012900C2213480CA902F02C
:10126000C3FB08B172B6FEE74FF40053CDE913009B
:10127000CDE9150017901A9013A90B48189302F0A6
:101280007FFE0446A0B172B6FEE700BF0010024028
:101290000018014000080140001401403C270020D4
:1012A000003401409CA6002048A60020002C0140EC
:1012B000854801F03BF84FF4E1338448844AC0E9A3
:1012C0000244C0E900230C230461C0E90534C46171
:1012D00002F0F6FE08B172B6FEE77E4C7E4B0125A9
:1012E000C4E900304FF6FF73C4E903300323CDE9AE
:1012F00013300A23CDE90C00CDE91550CDE91730A4
:10130000CDE91950A060A0611B9013A9204602F0FE
:10131000DFFA08B172B6FEE7CDE90C000CA9204651
:1013200002F0F8FD08B172B6FEE76C4C6C4BCDE9EB
:10133000130023604FF460231590A0602073207584
:1013400060602046E361256101F05EFA08B172B683
:10135000FEE70B23159013A92046CDE9133501F0C4
:10136000AFF908B172B6FEE75E4C5F4A0023012672
:1013700022604FF460222046CDE913331593A36019
:1013800023732375E2616360266101F03DFA08B1C1
:1013900072B6FEE70C23159013A92046CDE913364B
:1013A00001F08EF9054608B172B6FEE74FF0070866
:1013B0004FF6FF774D4C0146CDE90C00102213A8E3
:1013C00004F01CFF4A4B2046C4E90038C4E9037509
:1013D000A560A56102F050FA08B172B6FEE7CDE94A
:1013E0000C000CA9204602F095FD024608B172B629
:1013F000FEE7CDE91306CDE9150013A9204602F05A
:1014000081FB054608B172B6FEE73A4C0146102250
:1014100013A804F0F3FE384B2046CDE90C55C4E97F
:101420000038C4E902572561A56102F0CDF908B181
:1014300072B6FEE74FF48053204613A9139302F0CF
:10144000EFFB08B172B6FEE7CDE90C000CA920460F
:1014500002F060FD044608B172B6FEE73246274945
:101460001A4803F026F804F001FE03F03BF8214689
:10147000234A244803F072F8234B21461860234A7C
:10148000234803F06BF8234B21461860224A234877
:1014900003F064F8224B21461860224A224803F0E8
:1014A0005DF8224B21461860214A224803F056F885
:1014B000214B21461860214A214803F04FF8214B67
:1014C000186003F02BF8FEE748A60020CCA400200B
:1014D00000480040B0A500200004004004A6002001
:1014E0000024014014A500200028014084A400200D
:1014F0000008004064A50020000C0040EC00002023
:1015000068760008051E000834270020F8760008D9
:10151000590D0008FCA500208C760008650D000818
:1015200090A60020D4760008891A0008E4A60020BE
:10153000B0760008C50E000800A600201C77000841
:10154000A91C000834A60020174B10B51B68022206
:101550005843164B0C461860154B1649186000206E
:10156000154B1A60154B164AC3E9000101230021EF
:101570001360144A20461160134A1360FFF778FB8A
:10158000124B18602046FEF7A5FF05A3D3E9002300
:10159000FFF70AF8FFF762FA0D4B186010BD00BFA5
:1015A000CDCCCCCCCCCCF03F1400002058A50020F2
:1015B000F4A60020000052403CA6002008000020B5
:1015C000280100203001002008010020FCA6002096
:1015D000ACA5002000000000174B10B51B68174A8F
:1015E0005843174B0C461860164B174918600123D7
:1015F00000201360154AC2E900010021144A204668
:101600001360144A1160144A1360FEF763FF08A3C5
:10161000D3E90023FEF7C8FFFFF720FA0F4B18604D
:101620002046FFF725FB0E4B186010BDAFF300807E
:10163000295C8FC2F528EC3F140000203CA6002056
:1016400058A50020F4A60020000052400800002009
:10165000240100203001002008010020FCA6002009
:10166000ACA50020F8B506460F46224B1446186874
:10167000FEF730FF32463B46FEF796FF00221E4B38
:10168000FFF7BCF8FFF7A2F91C4B1D4AD3E900672E
:101690001C4B1D6800FB05F31360FEF71BFF324671
:1016A0003B46FEF781FFFFF791F902224543164BB7
:1016B00000201D60154B16491A600022154BC3E926
:1016C0000001154B20461A600123144A1360144A86
:1016D0001360FFF7CDFA134B18602046FEF7FAFEB1
:1016E0003B463246FEF760FFFFF7B8F90E4B186035
:1016F000F8BD00BF1C0000200080564038000020CC
:1017000058A5002014000020F4A600203CA60020CC
:101710000040564008000020200100203001002039
:1017200008010020FCA60020ACA500202DE9F04116
:1017300006460F46234B15461868FEF7CBFE324689
:101740003B46FEF731FF00221F4BFFF757F8FFF72C
:101750003DF91E4B0446D3E900671D4BD3F80080CA
:10176000FEF7B8FE32463B46FEF71EFFFFF72EF9A6
:1017700008FB00F00222174B04FB08F4186000205D
:10178000154B16491C60164B1A60164B164AC3E9D6
:10179000000100231360154A284613600122144BF0
:1017A0001A60FEF797FE32463B46FEF7FDFEFFF756
:1017B00055F9104B18602846FFF75AFA0E4B18607F
:1017C000BDE8F08118000020008056403000002065
:1017D0001400002058A50020F4A6002000804D40F1
:1017E0003CA600200800002020010020300100203D
:1017F00008010020FCA60020ACA50020000000008D
:101800002DE9F04190F81C800446B8F1010F17D182
:10181000274B02681B689A4212D1264E264F316828
:10182000354679B901F0C8FE236838601A6AC6F8EF
:10183000008022F00A021A621A6A42F002021A6258
:10184000BDE8F081002101F0B7FE1C4B1C4A186076
:101850003B68984222D9C31A13601068FEF72AFE2B
:1018600011A3D3E90023FEF79FFE0022154BFEF7DC
:101870009BFEFFF7D3F8144A144B1860136801332A
:10188000136000232B6023681A6A22F00A021A628E
:101890001A6A1A6201220E4B1A60D1E7DDD2C3F533
:1018A0007F43FE330344D7E79CC420B07268A13F56
:1018B00084A40020E8000020E0000020E4000020D4
:1018C000D80000200000E03F34010020DC000020B0
:1018D0004000002038B541F63F730F4C05462268A2
:1018E0009A4204D1BDE838400C4804F0BBBD0C4B13
:1018F0000C481A68013204BF00221A6004F02CFD63
:101900002368094801332946236000EB8300042241
:10191000BDE8384004F0DEBD04000020A8750008D2
:1019200000000020B27500088427002038B53B4C29
:101930004FF6FF7314222146394802F0EFFB0022D4
:10194000384B394D1A602B78703B032B237816D80F
:101950006B7063782846AB70A378EB70FFF7BAFF23
:101960000122324BDBB2EB70AB706B702B702146F7
:101970002B4802F09EFD00222D4B1A6038BDA3F1CA
:101980007002032A02D803222B70F0E7A3F1690248
:10199000012A08D82046FFF79DFF2648FFF79AFF47
:1019A00001221E49E4E7412B07D12348FFF792FFAC
:1019B0002046FFF78FFF2148F0E7422B04D1204853
:1019C000FFF788FF2046E9E7432B13D11D48FFF7B7
:1019D00081FF2046FFF77EFF1B48FFF77BFF1B4878
:1019E000FFF778FF1848FFF775FF1848FFF772FFF9
:1019F0001748D3E7452BE5D11648FFF76BFF204684
:101A0000FFF768FF1448FFF765FF1448FFF762FF10
:101A10001148FFF75FFF1148E8E700BFEC00002026
:101A2000CCA40020440000205CA50020A67500087E
:101A30002C010020DA750008DC750008DE7500084E
:101A4000E0750008E275000830760008E7750008C8
:101A5000E9750008EE750008648200086C770008DC
:101A60000022054B05491A6000230B6004490A60F7
:101A7000044A1360704700BFE8A600201C01002044
:101A8000ECA60020180100202DE9F74F00263C218C
:101A90006E48DFF8B8A101F034FD3C216C4801F03C
:101AA00030FD34463546D346DAF80030DFF8A08101
:101AB000586A6849D8F80030DFF8E8915A6A0B682C
:101AC000654F012BC9F80000644B3A601CD1644E8D
:101AD000306064480260644A64481668644A002EB4
:101AE0006DD1644E3668066063480068106001225C
:101AF00062481A60026000F0CBFD0022064655499C
:101B0000564B0A605E490A601B68012B03D05B4B91
:101B10001B68012BC8D100F0BBFD801B642833D9A2
:101B2000DBF80000D9F8003001683A6811F0100FB6
:101B3000544948D09D42DBBFC3F57F46FF36ED1ABE
:101B4000AD190D60D8F80050296811F0100F4E49FA
:101B500041D09442DBBFC2F57F46FF36A41AA419D8
:101B60000C6001684948C1F30011018029684848A8
:101B7000C1F30011CDE90032018000F089FD019A26
:101B8000009B064614461D46424B1B68002B40D165
:101B9000DBF8003040481A68314BD70619680068F6
:101BA000D9F8003024D599421DDBCB1A83427FF748
:101BB0007BAF44F61F6293423FF776AF22E00026E8
:101BC0000660166093E79D42A5BFC5F57F45FF35CA
:101BD0005D1BED18B5E79442A5BFC4F57F44FF3403
:101BE000141BA418BCE7C3F57F43FF330B44DDE7A8
:101BF00099420ADC5A1A82427FF756AF274B994224
:101C0000FFF652AFFFF72CFF4EE7C1F57F41FF31E2
:101C1000ECE7D8F8003022491868124BC0061B6860
:101C20003A68096809D59A4202DC9B1A8B42BEE7E2
:101C3000C2F57F42FF321344F8E79A4201DBD31A20
:101C4000F4E7C3F57F43FF33F5E700BF9CA6002010
:101C5000B0A5002004010020382700201C0100202E
:101C600014010020100100204C010020E8A60020F3
:101C7000ECA60020ACA50020FCA600201801002046
:101C80000001002010A5002060A50020F0A6002083
:101C900040A6002030010020F4A60020E1B1FFFFA3
:101CA00058A5002044A600202DE9F0410021354828
:101CB00002F0B8F8344EDFF8CC80344F3568012D8F
:101CC00013D10024D8F800302A464FF4005138468A
:101CD0005C62346001F01AF8284602F09BFC224650
:101CE0004FF40051384601F011F8294A1368012BCE
:101CF0002FD1284B1B6863BB27490968362928D890
:101D0000264913600B60FFF7ABFE2548FFF7E2FDA5
:101D10002448FFF7DFFD2448FFF7DCFD2348FFF7E9
:101D2000D9FD2348FFF7D6FD2248FFF7D3FD204811
:101D3000FFF7D0FD2048FFF7CDFD1B48FFF7CAFD98
:101D40001848FFF7C7FD1648FFF7C4FD1B48FFF70B
:101D5000C1FD1B480368012B10D10E4B1C686CB9E8
:101D60000D4B1B68152B09D8FFF77AFE4FF6FF7352
:101D700004602C221349144802F0D0F9642002F0C8
:101D800049FC9BE784A4002040000020001401408F
:101D90004001002008010020DC0000203C01002060
:101DA000F3750008F5750008FA750008FC75000861
:101DB0000176000803760008087600080D76000812
:101DC0004801002020000020CCA40020094A10B5C2
:101DD0001368591C03D0084909688B4204DD074881
:101DE00004F040FB204610BD054C591C116004EB6B
:101DF0008304F7E700000020040000200F760008AD
:101E0000842700202DE9F34700240026DFF81C82F8
:101E1000764D774FD8F80000012800F08D80754B83
:101E2000754A1B681268DFF808921343734A1268F8
:101E30001343734A12681343D9F80020134308D19F
:101E4000704B1B68002B76D10120C9F8000002F00E
:101E5000E1FBD9F800A0BAF1010F6CD16A4B1B6805
:101E60005A1C00F0BB80694A1268934200F3B680A6
:101E70000023C9F80030FFF7A9FF042201460DEB4B
:101E8000020004F027FB9DF80430612B05D14FF4CC
:101E900048610520FFF758FB4DE0672B08D0682B01
:101EA0000DD140F6B83220462946FFF7DBFB42E071
:101EB00040F6B83220462946FFF738FC3BE0692B54
:101EC00024D06A2B27D0472B2AD04B2B37D05A2B24
:101ED0003ED0702B45D0712B56D0722B69D0732B0E
:101EE00029D19DF806009DF80530A0F130020A20A6
:101EF00050436422303B02FB03039DF807004FF47C
:101F0000486130381844FFF767FB14E040F6B832F8
:101F100030463946D0E740F6B83230463946C4E755
:101F20004FF44861C820FFF70FFB394BC3F800A0FE
:101F3000384BC3F800A0642002F06CFB6AE7012371
:101F4000354A4FF448611360344A3C201360A1E7DE
:101F50004FF44861C820FFF7F7FA314B01221A60AD
:101F6000E9E79DF806009DF80530A0F130020A204F
:101F700050436422303B02FB03039DF807004FF4FB
:101F800048613038184485E79DF806009DF8053013
:101F9000A0F130020A2050436422303B02FB0303CD
:101FA0009DF8070030381844FEF794FA40F6B8322E
:101FB00082E79DF806009DF80530A0F130020A2066
:101FC00050436422303B02FB03039DF80700303886
:101FD0001844FEF77FFA40F6B83266E7114B124A12
:101FE000196812680A43A6D1B8E700BF00804640CE
:101FF000008056401C010020180100200401002030
:102000000001002008010020000000200400002042
:102010003C01002040010020440100203801002044
:10202000480100202C0100200C0100204400002069
:10203000100000200268034B9A4201D100F01CBB43
:10204000704700BF0010004072B6FEE7114B07B5A5
:102050009A690F2142F001029A619A696FF00100BA
:1020600002F001020092009ADA6942F08052DA61CD
:10207000DB69002203F080530193019B00F060FCB8
:10208000054A536823F0E06343F08063536003B074
:102090005DF804FB0010024000000140102210B562
:1020A000044688B00DEB0200002104F0A7F8236875
:1020B0001B4A93421CD11B4B9A6942F400729A61ED
:1020C0009A6902F400720092009A9A6942F0100232
:1020D0009A619B6903F010030193019B022304930F
:1020E0000323114804A9059300F026FD08B010BD94
:1020F0000E4A9342FAD10B4B9A6942F480629A617C
:102100009A6902F480620292029A9A6942F010027D
:102110009A619B6903F010030393039B0423DEE79A
:10212000002401400010024000100140002801403E
:10213000102210B5044688B00DEB0200002104F017
:102140005DF82368174A93420BD1174B9A6942F402
:1021500000629A619B6903F400630193019B08B0DC
:1021600010BD124A9342FAD10F4B11489A6904A943
:1021700042F400529A619A6902F400520292029A61
:102180009A6942F010029A619B69C02203F0100321
:102190000393039B0223CDE90423079300F0CCFCB7
:1021A000DDE700BF002C0140001002400034014078
:1021B0000010014010B504468AB01022002106A884
:1021C00004F01CF82368B3F1804F39D103F50433D0
:1021D000DA69002442F00102DA61DA69284802F083
:1021E00001020192019A9A6906A942F004029A61D9
:1021F0009A6902F004020292029A9A6942F0080275
:102200009A619B69089403F008030393039B4FF4BE
:102210000043CDE9063400F08FFC0823194806A9D5
:10222000CDE90634089400F087FC174A536823F47C
:10223000407343F0E06343F4807353600AB010BD11
:10224000124A9342FAD1124B0D48DA6906A942F0BC
:102250000202DA61DA6902F002020492049A9A69CF
:1022600042F004029A619B69C02203F004030593C3
:10227000059B0023CDE90623089300F05DFCDDE714
:1022800000080140000C0140000001400004004033
:102290000010024010B5044686B01022002102A8AA
:1022A00003F0ACFF22681E4B9A4236D103F502338D
:1022B000DA69002442F00402DA61DA69194802F0AE
:1022C00004020092009A9A6902A942F020029A61DF
:1022D0009B69049403F020030193019B4FF4805306
:1022E000CDE9023400F028FC02234FF480420D486F
:1022F00002A9CDE90223059300F01EFC0A4A1E2024
:102300005368052143F0E06343F480535360224651
:1023100000F016FB1E2000F045FB06B010BD00BF0C
:1023200000080040001401400000014010B50446C0
:1023300086B01022002102A803F060FF2268104B33
:102340009A421BD103F564439A690E4842F0400259
:102350009A619B694FF4804203F040030193019B13
:10236000022302A9CDE90223059300F0E5FB064A0A
:10237000536843F0E06343F0C003536006B010BD00
:10238000002C0140001801400000014010B5044637
:1023900086B01022002102A803F030FF22681F4BF4
:1023A0009A4239D103F5E433DA691D4842F48022B8
:1023B000DA61DA6902A902F480220092009A9A692D
:1023C000002442F010029A619B694FF4806203F08E
:1023D00010030193019B0223CDE9022303230593FC
:1023E00000F0AAFB4FF400630D4802A9CDE90234C6
:1023F000049400F0A1FB0B4A27205368052123F029
:10240000300343F0E06343F010035360224600F0D2
:1024100097FA272000F0C6FA06B010BD0048004029
:10242000001001400000014010B5014688B00022B4
:10243000362000F085FA362000F0B4FA144B01A9DA
:10244000DA6903A842F01002DA61DB69114C03F08B
:1024500010030293029B00F0FDFE00F0DBFE0E4B2A
:102460004000236040F2E733E3600C4BB0FBF3F035
:1024700000230138606020462361A36001F0A4F9C5
:1024800020B9204601F00AF808B010BD0120FBE792
:102490000010024000A700200010004040420F0042
:1024A000FEE7FEE7FEE7FEE7FEE77047014801F0C2
:1024B0009CB800BF84A40020014801F0E1BE00BF29
:1024C000CCA40020014801F090B800BF00A7002074
:1024D00070B50E4614460025A54201DB204670BDAE
:1024E000AFF3008070550135F6E770B50E4614461F
:1024F0000025A54201DB204670BD705DAFF3008072
:102500000135F6E74FF0FF3070474FF400530020DD
:102510004B60704701207047002070470B4B02460C
:10252000196810B509B90A491960186809490A4CAF
:102530000244091B8A4206D903F020FE0C230360E3
:102540004FF0FF3010BD1A60FCE700BF50010020C3
:1025500090AB002000000120000400007047000044
:102560000C480D490D4A002302E0D458C4500433EE
:10257000C4188C42F9D30A4A0A4C002301E01360C4
:102580000432A242FBD3FFF7E9FF03F0FDFDFEF7A3
:102590001BFD704700000020BC0000208082000866
:1025A000BC00002090AB0020FEE708B5037A012BA9
:1025B00003D972B6FFF748FDFEE75A1C0272EFF32B
:1025C00011824FF0500181F31188BFF36F8FBFF379
:1025D0004F8F40F8232008BD08B5037A013BDBB2DA
:1025E000012B037203D972B6FFF72EFDFEE750F8F8
:1025F000233083F3118808BD10B5044620B903F0D9
:10260000BDFD1623036010BD0C2003F0E1FD20602A
:1026100020B10023C0E900330372F4E772B6FFF77C
:1026200013FDFEE708B518B972B6FFF70DFDFEE71A
:10263000BDE80840FFF7B9BFFFF7F4BF08B518B908
:1026400072B6FFF701FDFEE7BDE80840FFF7C4BF23
:10265000FFF7F4BF074A08B51368032043F01003DF
:10266000136000F05BF90F20FFF7DEFEFFF7EEFCD2
:10267000002008BD00200240034A044B11681B786B
:102680000B441360704700BF48A700204C00002097
:10269000014B1868704700BF48A7002038B50446B2
:1026A000FFF7F6FF0546631C1EBF044B1B78E418BA
:1026B000FFF7EEFF431BA342FAD338BD4C000020C6
:1026C000002373B5019390F824300446012B6CD09D
:1026D000012380F824304D680268062D086805EB58
:1026E000850322D81F26556B053B9E4025EA06052B
:1026F00000FA03F32B43536309288B6800EB400572
:102700004FF0070129D9D6681E3DA94026EA0101EC
:10271000AB400B43D360A0F11003012B25D900205F
:10272000002384F8243002B070BD0C2D4FF01F053B
:1027300009D8166B233B9D4026EA050500FA03F3F2
:102740002B431363D8E7D66A413B9D4026EA050533
:1027500000FA03F32B43D362CEE71069A94020EAC5
:102760000101AB400B431361D9E7114B9A4216D1DB
:1027700093681B02D3D49368102843F4000393603A
:10278000CDD10C4B0C4A1B68B3FBF2F20A23534326
:102790000193019B002BC2D0019B013BF8E7A36A88
:1027A000012043F02003A362BAE70220BBE700BF89
:1027B000002401404800002040420F0038B5036863
:1027C00004469A68D10701D4002038BD9A6822F0E7
:1027D00001029A60FFF75CFF054623689B68DB07F0
:1027E000F2D5FFF755FF401B0228F6D923689B68F6
:1027F000DA07F2D5A36A012043F01003A362E36A6B
:1028000043F00103E362E0E7F8B50446002877D01F
:10281000836A23B9C36280F82430FFF73FFC204667
:10282000FFF7CCFFA36A13F010036BD1002869D126
:10283000A26A374E22F4885222F0020242F00202CB
:10284000A262D4E90021B242E56904D1B5F5402F76
:1028500008BF4FF40025267B41EA46012943A568BD
:10286000B5F5807F37D0012D0CBF4FF4807C4FF041
:10287000000C277D012F06D17EBBA769013F4CEAE2
:10288000473646F4006C5668B5F5807F26F46946F5
:1028900046EA0C06566097681E4E06EA070646EAA8
:1028A0000106966001D0012D02D12369013B1B0571
:1028B000D56A25F470052B43D3629268164B1340FA
:1028C000994213D10023E362A36A23F0030343F088
:1028D0000103A362F8BDAC46CBE7A66A46F020062A
:1028E000A662E66A46F00106E662CCE7A36A23F038
:1028F000120343F01003A362E36A43F00103E362AF
:102900000120E7E7A36A43F01003A362F8E700BFE2
:10291000003C0140FDF7E1FFFE0E1FFF07490302E7
:10292000CA6803F4E06322F4E0621204120C134359
:1029300043F0BF6343F40033CB60704700ED00E029
:10294000164B30B5DC68C4F30224C4F10703251D1F
:10295000042B28BF0423062D4FF0FF3598BF002419
:1029600005FA03F388BF033C21EA0303A34005FAF9
:1029700004F422EA0402002843EA0203ACBF00F197
:102980006040074A4FEA0313DBB2ABBF00F561407A
:1029900000F00F0080F80033135430BD00ED00E06C
:1029A00014ED00E0002808DB0123420900F01F00BD
:1029B00003FA00F0014B43F82200704700E100E009
:1029C00090F82130022B06D004238363002380F883
:1029D00020300120704703681A6822F00E021A6046
:1029E0001A6822F001021A600123D0E90F218B40FE
:1029F00053604FF4807303840020704708B590F84B
:102A00002130022B03D004238363012008BD036817
:102A100043491A6822F00E021A601A6822F0010275
:102A20001A60404A934241D98B4238D014318B42CC
:102A300037D014318B4236D014318B4223D014312D
:102A40008B4223D014318B4223D0934224D002F501
:102A50006272934223D01432934222D014329342B2
:102A600021D01432934214BF4FF480334FF480537B
:102A70002D4A53604FF480730384436B002B4DD079
:102A800098470020C2E74FF48053F1E74FF48033BA
:102A9000EEE74FF48013EBE74FF08073E8E7012394
:102AA000E6E71023E4E74FF48073E1E78B422ED092
:102AB0001E498B422DD014318B422CD014318B42C5
:102AC00019D014318B4219D014318B4219D0934252
:102AD0001AD0174A93421AD01432934219D01432A2
:102AE000934218D01432934214BF4FF480334FF402
:102AF0008053104ABDE74FF48053FAE74FF4803318
:102B0000F7E74FF48013F4E74FF08073F1E7012308
:102B1000EFE71023EDE74FF48073EAE7184675E717
:102B20000800024080000240000402401C000240F5
:102B300008040240000002402DE9F74F002216462B
:102B40006B4F6C4BDFF8B4C1DFF8B4E10C6834FABA
:102B500006F502D103B0BDE8F08F4FF0010808FA86
:102B600006F804EA080538EA040440F082804C685C
:102B7000032C07D8013C022C00F28D80DFE804F022
:102B80009EA3A900122C00F0A18074D8112C00F093
:102B90009780FF2D98BF82464FF00F0988BF00F144
:102BA000040A4FEA8604DAF8008088BF203C09FA5C
:102BB00004FB28EA0B0802FA04F448EA0404CAF801
:102BC0000040D1F804A01AF0805F52D0BC6926F012
:102BD000030844F00104BC61BC6908F1804804F0BA
:102BE0000104019408F5803806F0030B019C4FEABC
:102BF0008B0BD8F8084009FA0BF924EA09093E4C76
:102C0000A0426AD004F58064A04268D004F58064D4
:102C1000A04266D004F58064A04264D004F58064CC
:102C2000A04262D060450CBF0524062404FA0BF4D0
:102C300044EA0904C8F808401C681AF4803F14BF2D
:102C40002C43AC431C605C681AF4003F14BF2C4357
:102C5000AC435C609C681AF4801F14BF2C43AC43E7
:102C60009C60DC681AF4001F14BF254324EA0505A4
:102C7000DD6001366AE774450DD018D8DFF884901E
:102C80004C4508D009F570294C4504D0A9F58019A8
:102C90004C457FF47EAF8A68EAB1012A08BFC0F8CC
:102CA00010804FF0080218BFC0F8148071E7DFF8F9
:102CB00058904C45EFD009F58039E9E7CA6868E7D4
:102CC000CA68043265E7CA68083262E7CA680C322B
:102CD0005FE700225DE704225BE70024A6E701240A
:102CE000A4E70224A2E70324A0E704249EE700BF90
:102CF000001002400004014000080140001C014097
:102D00000000221000001210000031100AB1016111
:102D100070470904FBE700000122014B1A6070476D
:102D200020000E420022014B1A60704720000E4224
:102D30002DE9F341054638B30368DB0710D42B684F
:102D40009F075ED42B68190700F195802B685A07FE
:102D500000F1BF80E869002840F02C81002029E0C4
:102D60008F4C636803F00C03042B07D0636803F0F7
:102D70000C03082B0AD16368DE0307D523689C0384
:102D8000DDD56B68002BDAD1012013E06B68B3F559
:102D9000803F12D1236843F480332360FFF778FC2F
:102DA000064623689803CAD4FFF772FC801B642888
:102DB000F7D9032002B0BDE8F0819BB9236823F462
:102DC00080332360236823F480232360FFF760FCB3
:102DD000064623689903B2D5FFF75AFC801B642886
:102DE000F7D9E6E7B3F5A02F236803D143F4802396
:102DF0002360CFE723F480332360236823F4802308
:102E0000CBE7674C636813F00C0F07D0636803F0DF
:102E10000C03082B10D16368DA030DD423689B07D9
:102E200002D52B69012BAFD123686A6923F0F8031F
:102E300043EAC203236085E72A695A4B6AB101223B
:102E40001A60FFF725FC064623689F07ECD4FFF7BE
:102E50001FFC801B0228F7D9ABE71A60FFF718FCAC
:102E60000646236898077FF56DAFFFF711FC801BBE
:102E70000228F6D99DE7AA69494E4B4BDAB10122E7
:102E80001A60FFF705FC0446736A9B070DD54FF4E3
:102E9000FA52464B1B68B3FBF2F3019300BF019B50
:102EA0005A1E0192002BF9D150E7FFF7F1FB001BEE
:102EB0000228E9D97DE71A60FFF7EAFB0446736A46
:102EC0009F077FF543AFFFF7E3FB001B0228F6D90E
:102ED0006FE7334CE369D80024D40127E36943F05A
:102EE0008053E361E36903F080530093009B304E0D
:102EF0003368D90518D5EB68012B26D1236A43F036
:102F000001032362FFF7C4FB41F288380646236AB7
:102F10009B073FD5002F3FF41DAFE36923F080539B
:102F2000E36117E70027E2E7336843F48073336017
:102F3000FFF7AEFB80463368DA05DCD4FFF7A8FB69
:102F4000A0EB08006428F6D933E7ABB9236A41F255
:102F5000883823F001032362236A23F004032362E9
:102F6000FFF796FB0646236A9807D3D5FFF790FB39
:102F7000801B4045F7D91CE7052B236A03D143F09A
:102F800004032362BAE723F001032362236A23F0D8
:102F90000403B6E7FFF77CFB801B4045B7D908E781
:102FA00000100240000042428004424248000020DB
:102FB000007000402A4B5A681C4602F00C02082A96
:102FC0003DD00023274E022833602BD1FFF760FB52
:102FD0000746236899011FD42B6AB3F5803F05D1BA
:102FE0006268A96822F400320A436260696A626812
:102FF0000B4322F474121343636001233360FFF721
:1030000047FB054623689A013FF5A8AEFFF740FB52
:10301000401B0228F6D9CCE6FFF73AFBC01B02287A
:10302000D7D9C6E6FFF734FB054623689B017FF539
:1030300095AEFFF72DFB401B0228F6D9B9E6012813
:103040003FF4B8AE5B682A6A03F4803191427FF4A2
:103050009BAE6A6A03F4701393423FF47FAE93E62B
:10306000001002406000424230B5184B87B002ACFD
:1030700003F11005224618685968083303C2AB42B1
:103080001446F7D140F201231149ADF804304B68E2
:1030900003F00C02082A17D1C3F3834206A80244A6
:1030A000DB0312F8102C0CD54B680A48C3F34043DD
:1030B000504306AA134413F8143CB0FBF3F007B0D6
:1030C00030BD05485043FAE70248F8E75877000852
:1030D0000010024000127A0000093D002DE9F04185
:1030E0000D46044610B90120BDE8F081444A13683A
:1030F00003F007038B4228D321688E0730D4CA0718
:1031000043D43F4A136803F00703AB4265D82268F3
:103110003C4D12F0040F6CD1130706D56B68226981
:1031200023F4605343EAC2036B60FFF79DFF6B68B3
:10313000354AC3F30313D35CD840344B1860344B87
:103140001868FFF771F90020CEE7136823F0070332
:103150000B431360136803F007038B42C3D1CBE723
:10316000284B11F0040F1EBF5A6842F4E0625A6007
:10317000080742BF5A6842F460525A605A68A06811
:1031800022F0F00202435A60B9E762681D4E012A3C
:1031900033681AD113F4003FA5D0736841F2883820
:1031A00023F0030313437360FFF772FA0746736853
:1031B000626803F00C03B3EB820FA2D0FFF768FA4A
:1031C000C01B4045F3D903208EE7022A02D113F039
:1031D000007FE1E713F0020FDEE7136823F0070337
:1031E0002B431360136803F00703AB427FF47BAFFC
:1031F0008DE76B68E16823F4E0630B436B608BE75A
:1032000000200240001002404077000848000020E3
:1032100050000020044B054A5B68C3F30223D35CD3
:10322000034A1068D84070470010024050770008E9
:1032300048000020044B054A5B68C3F3C223D35CFB
:10324000034A1068D84070470010024050770008C9
:10325000480000200F2303600B4B5A6802F0030262
:1032600042605A6802F0F00282605A6802F4E0623A
:10327000C2605B68DB0803F4E0630361034B1B6817
:1032800003F007030B60704700100240002002406B
:1032900003682DE9F341D907054620D5354CE3698C
:1032A000DA0032D40127E36943F08053E361E36934
:1032B00003F080530193019B2F4E3368DB0526D525
:1032C000236A13F4407336D1236A6A6823F4407387
:1032D000134323621FB1E36923F08053E36128683D
:1032E000830706D52349AB684A6822F440421A4353
:1032F0004A6010F010001BD01E4A69695368002014
:1033000023F480030B43536012E00027D4E73368B3
:1033100043F480733360FFF7BBF980463368D80508
:10332000CED4FFF7B5F9A0EB08006428F6D9032046
:1033300002B0BDE8F0816A6802F440729A42C3D0DC
:1033400001200E4A236A1060002023F440711060AF
:103350002162D907B8D5FFF79BF941F288380646B4
:10336000236A9A07B0D4FFF793F9801B4045F7D939
:10337000DDE700BF00100240007000404004424200
:10338000036A70B523F001030362036A446882692B
:103390000D6822F073022A438D6823F002032B4349
:1033A0000E4DA84202D00E4EB04210D1CE6823F08E
:1033B00008033343A84223F0040302D0084DA84277
:1033C00005D1D1E9055624F4407435432C434460BB
:1033D00082614A684263036270BD00BF002C0140F5
:1033E00000340140036A70B523F480730362036AFA
:1033F0004468C2690D6822F073022A438D6823F481
:10340000007343EA0523114DA84203D005F500657A
:10341000A84214D1CD6823F4006343EA05230B4D81
:1034200023F48063A84203D005F50065A84206D1C5
:10343000D1E9055624F44054354344EA0514446068
:10344000C2614A68C263036270BD00BF002C0140C4
:10345000036A30B523F480530362036A4468C26987
:103460000D6822F4E64242EA05228D6823F40053F7
:1034700043EA0533084DA84203D005F50065A8428C
:1034800004D14D6924F4804444EA85144460C26147
:103490004A680264036230BD002C014090F83D3060
:1034A000012B28D1022380F83D300368DA6842F00E
:1034B0000102DA60114A934212D002F5006293428F
:1034C0000ED0B3F1804F0BD0A2F59832934207D0C3
:1034D00002F58062934203D002F58062934204D1E8
:1034E0009A6802F00702062A03D01A6842F0010225
:1034F0001A60002070470120704700BF002C014077
:103500007047034630B590F83E2090F83F0093F89E
:10351000425093F84340D2B2C0B2EDB2E4B2C1B966
:10352000012A45D1012D45D1022283F83E2083F89E
:1035300042201A68116A21F001011162116A41F0FA
:103540000101002011621A68136843F0010313603F
:1035500030BD042911D101282AD1012CF8D1022231
:1035600083F83F2083F843201A68116A21F0100184
:103570001162116A41F01001E3E7012A18D1012814
:1035800018D1012DE4D1012CE2D1022283F83E2092
:1035900083F83F2083F8422083F843201A68116A99
:1035A00021F001011162116A41F001011162DCE7B1
:1035B0000120CDE71046CBE7082910D004D841B14F
:1035C000042909D0002070470C29FBD10368186C2E
:1035D00070470368586B70470368986B70470368BF
:1035E000D86B7047704770477047036810B51A6909
:1035F000044691070ED5DA6892070BD56FF00202E8
:103600001A61012202779B699B0777D0FEF7F8F8D1
:103610000023237723681A69500710D5DA68510709
:103620000DD56FF004021A61022222779B692046B1
:1036300013F4407F68D0FEF7E3F800232377236874
:103640001A6912070FD5DA6810070CD56FF0080257
:103650001A6104222277DB69204699075AD0FEF7C7
:10366000CFF80023237723681A69D20610D5DA68C9
:10367000D0060DD56FF010021A6108222277DB699F
:10368000204613F4407F4BD0FEF7BAF8002323778F
:1036900023681A69D10708D5DA68D20705D56FF013
:1036A000010220461A61FEF7C5FC23681A6910065C
:1036B00008D5DA68110605D56FF0800220461A6138
:1036C00000F085FC23681A69520608D5DA685006AE
:1036D00005D56FF0400220461A61FFF785FF236889
:1036E0001A69910622D5DA6892061FD56FF020027A
:1036F0002046BDE810401A6100F068BCFFF772FF79
:103700002046FFF770FF83E7FFF76CFF2046FFF7C7
:103710006AFF92E7FFF766FF2046FFF764FFA0E726
:10372000FFF760FF2046FFF75EFFAFE710BD000028
:10373000244A0368904212D002F5006290420ED0F3
:10374000B0F1804F0BD0A2F59832904207D002F52D
:103750008062904203D002F5806290421DD14A6897
:1037600023F070031343174A904212D002F500620F
:1037700090420ED0B0F1804F0BD0A2F5983290421B
:1037800007D002F58062904203D002F58062904239
:1037900003D1CA6823F4407313434A6923F08003BA
:1037A000134303608B68C3620B688362054B9842C6
:1037B00003D003F50063984201D10B690363012331
:1037C00043617047002C014010B5044630B390F8B7
:1037D0003D3003F0FF021BB980F83C20FEF7A8FC47
:1037E0000223206884F83D30211DFFF7A1FF01234B
:1037F000002084F8463084F83E3084F83F3084F866
:10380000403084F8413084F8423084F8433084F802
:10381000443084F8453084F83D3010BD0120FCE789
:1038200010B5044630B390F83D3003F0FF021BB9E9
:1038300080F83C20FFF764FE0223206884F83D30C6
:10384000211DFFF775FF0123002084F8463084F81E
:103850003E3084F83F3084F8403084F8413084F8BA
:10386000423084F8433084F8443084F8453084F89A
:103870003D3010BD0120FCE710B5044630B390F890
:103880003D3003F0FF021BB980F83C20FEF702FD3B
:103890000223206884F83D30211DFFF749FF0123F2
:1038A000002084F8463084F83E3084F83F3084F8B5
:1038B000403084F8413084F8423084F8433084F852
:1038C000443084F8453084F83D3010BD0120FCE7D9
:1038D000F8B50D46044600284DD090F83D3003F071
:1038E000FF021BB980F83C20FEF764FC022321464E
:1038F00084F83D3051F8040B836823F4804323F0AF
:1039000007038360FFF714FF20682B6886688269CD
:10391000A9681E43AB6922F4407222F0030241EA17
:103920000323134323F47C422B69E9691B0143EA17
:103930000123E968076A0B43296A22F0FC0243EA83
:1039400001331343696927F022026F68866047EAF2
:1039500001178361174301230762002084F8463072
:1039600084F83E3084F83F3084F8423084F84330A5
:1039700084F83D30F8BD0120FCE70000036A70B513
:1039800023F010030362036A446882690D6822F41D
:10399000E64242EA05228D6823F0200343EA05133C
:1039A000104DA84203D005F50065A84214D1CD689A
:1039B00023F0800343EA05130A4D23F04003A84295
:1039C00003D005F50065A84206D1D1E9055624F4D7
:1039D0004064354344EA8504446082614A688263F6
:1039E000036270BD002C014038B590F83C300446AD
:1039F000012B52D00123082A80F83C303CD006D855
:103A0000C2B1042A27D0002084F83C0038BD0C2A1B
:103A1000F9D10068FFF71CFD23680969DA6942F4EF
:103A20000062DA61DA6922F48062DA61DA6942EA14
:103A3000012230E00068FFF7A3FC236809699A6956
:103A400042F008029A619A6922F004029A619A6926
:103A50000A439A61D7E70068FFF790FF2368096976
:103A60009A6942F400629A619A6922F480629A61CA
:103A70009A6942EA0122ECE70068FFF7B3FC236889
:103A80000969DA6942F00802DA61DA6922F00402AF
:103A9000DA61DA690A43DA61B5E70220B6E70000C5
:103AA00070B5046A164E24F001040462B0428469C1
:103AB000056A21D006F50066B0421DD0B0F1804FF6
:103AC0001AD0A6F59836B04216D006F58066B042F8
:103AD00012D006F58066B0420ED044F001021B0100
:103AE000DBB222F0F0021A4301F00A0125F00A03CA
:103AF00019438261016270BD24F003042243EEE7A2
:103B0000002C0140F8B590F83C300446012B0E46DD
:103B1000154679D0012380F83C30F368006806C967
:103B200075B9FFF7BDFF2368B1689A6922F00C02EE
:103B30009A619A690A439A61002084F83C00F8BDB2
:103B4000042DB66822D1056A090125F01005056229
:103B50008769D0F820E027F4407C1D034CEA022C52
:103B60002CF4704CADB22EF0A00E01F0A00145EA8D
:103B70000C0541EA0E0185610162836923F440630B
:103B80008361836943EA06268661D5E7082D056AC5
:103B90001CD125F480750562C769056A27F0030703
:103BA00017431B010902DBB227F0F00725F400756B
:103BB00001F400711F432943C7610162C36923F007
:103BC0000C03C361C3691E43C661B5E725F4805584
:103BD0000562C569076A25F4407545EA02251B039D
:103BE000090325F470459BB227F4005701F40051F6
:103BF0002B433943C3610162C36923F44063C3614A
:103C0000C36943EA0626DFE7022098E710B5846817
:103C10000A4324F47F4442EA03222243826010BD17
:103C200070B590F83C300446012B4FF0020027D0CD
:103C3000012384F83D00206884F83C30836823F435
:103C40007F4323F0770383600B68602B4DD032D81D
:103C5000402B62D015D8202B03D009D833F01002A6
:103C600008D1826822F07002134343F0070320E07A
:103C7000302BF6D00123002084F83D3084F83C003E
:103C800070BD502BF6D14A68CE68016A056A21F0F2
:103C90000A0125F00105056283690A4323F0F00358
:103CA00043EA061383610262836823F0700343F0E2
:103CB00057038360DEE7702B0CD0B3F5005FD9D1DA
:103CC000CB68D1E90121FFF7A1FF2268936843F493
:103CD000804308E0CB68D1E90121FFF797FF226814
:103CE000936843F077039360C4E74D68CE68016A38
:103CF00021F0100101628269036A22F4704223F00C
:103D0000A00343EA051342EA063282610362836834
:103D100023F0700343F06703CBE74A68CE68016A7B
:103D2000056A21F00A0125F00105056283690A434D
:103D300023F0F00343EA061383610262836823F0F1
:103D4000700343F04703B4E710B50124036A01F0A0
:103D50001F018C4023EA04030362036A8A401A436A
:103D6000026210BD10B5044629B990F83E30012B0F
:103D70001DD0012032E0042907D190F83F30012BFB
:103D8000F7D1022380F83F3014E0082907D190F8DA
:103D90004030012BEDD1022380F840300AE090F84A
:103DA0004130012BE5D1022380F8413002E00223AB
:103DB00080F83E3001222068FFF7C6FF2368154ACD
:103DC00093420CD014498B4209D0B3F1804F10D1EB
:103DD0009A6802F00702062A16D1002010BD596C1D
:103DE000934241F400415964F2D00B4A9342EFD020
:103DF000EBE70A4A9342EBD002F580629342E7D0A8
:103E000002F580629342E3D01A6842F001021A6020
:103E1000E3E700BF002C01400034014000040040F3
:103E2000FFF7A0BF10B5044600293AD190F83E0034
:103E300094F84230C0B20128DBB266D1012B65D1C3
:103E400002232068002942D184F83E3084F84230B1
:103E5000C36843F00203C3600122FFF775FF2368C4
:103E60002B4A934212D002F5006293420ED0B3F176
:103E7000804F0BD0A2F59832934207D002F58062B2
:103E8000934203D002F58062934204D19A6802F013
:103E90000702062A03D01A6842F001021A600020C5
:103EA00034E0042905D190F83F0094F84330C0B2C3
:103EB000C1E708290BBF90F8400094F8410094F83E
:103EC000443094F845300CBFC0B2C0B2B3E7042907
:103ED00007D184F83F3084F84330C36843F00403CB
:103EE000B9E7082907D184F8403084F84430C36822
:103EF00043F00803AFE70C2984F8413084F84530DB
:103F0000AAD1C36843F01003A5E7012010BD00BF8C
:103F1000002C014030B590F83C300246012B4FF0A8
:103F200002002AD0136882F83D005C680D6824F016
:103F300070042C4398685C60104CA34212D004F5C6
:103F40000064A3420ED0B3F1804F0BD0A4F5983497
:103F5000A34207D004F58064A34203D004F5806433
:103F6000A34204D1496820F08000014399600123F5
:103F7000002082F83D3082F83C0030BD002C01402A
:103F800090F83C30012B1FD0CB688A6823F4407333
:103F900013434A6823F4806313430A6823F40063DD
:103FA00013430A6923F4805313434A6923F40053EB
:103FB0001343CA6923F48043134302685364002304
:103FC00080F83C30184670470220704770477047B1
:103FD0000368DA6822F49072DA605A6922F001020A
:103FE0005A61026B012A02BFDA6822F01002DA601D
:103FF000202380F83E3000230363704710B5044649
:104000000368C1681A6922F440520A431A6182683F
:104010000069D9680243606921F4B05121F00C01B4
:1040200002430A43DA605A69A16922F440720A43E2
:104030005A610E4A934215D1FFF7FCF81923434306
:10404000626820689200B3FBF2F36422B3FBF2F1E2
:1040500002FB11331B013233B3FBF2F303EB011309
:10406000836010BDFFF7D6F8E8E700BF00380140D5
:10407000F8B504460E4617461D462268136836EA10
:10408000030301D1002014E06B1CF7D095B923681D
:104090000320DA6822F4D072DA605A6922F0010251
:1040A0005A61202384F83D3084F83E30002384F8A0
:1040B0003C30F8BDFEF7ECFAC01B8542DDD2E6E7E6
:1040C00010B5044640B390F83D3003F0FF021BB931
:1040D00080F83C20FEF75AF92423226884F83D300A
:1040E000D368204623F40053D360FFF787FF23688B
:1040F00000201A6922F490421A615A6922F02A02B9
:104100005A61DA6842F40052DA602023206484F8AD
:104110003D3084F83E3010BD0120FCE72DE9F84326
:10412000994690F83D300446202B0E46174648D15C
:10413000002944D0002A42D090F83C30012B40D0D6
:104140000123002580F83C302123056480F83D30B0
:10415000FEF79EFAA3688046B3F5805FA784E784E4
:1041600003D123690BB935461E46002384F83C3041
:10417000E38C9BB253B94B46424640212046FFF7A1
:1041800077FF50B9202384F83D3007E04B46424684
:1041900080212046FFF76CFF10B10320BDE8F883B3
:1041A00022684EB935F8023BC3F308035360E18C33
:1041B000013989B2E184DBE716F8013BF6E701201B
:1041C000ECE70220EAE77047704708B50023406A31
:1041D000C385C384FFF7F8FF08BD704713B590F897
:1041E0003E30222B49D18168836AB1F5805F026835
:1041F00033D10169002933D15268C2F3080223F890
:10420000022BC48D8362013CA4B2C4851CBB03682D
:10421000DA6822F02002DA60DA6822F48072DA606A
:104220005A6922F001025A61202280F83E20026B76
:10423000012A1FD10463DA6822F01002DA601A68DA
:10424000D20605D501941A6801925B680193019B1F
:10425000818DFFF7C2FF002010E039B9016929B94B
:104260005268D2B21A70836A0133CAE7526802F008
:104270007F02F7E7FDF75AFBEDE7022002B010BD21
:10428000036837B51A68044612F00F0FD9685D69E4
:1042900008D195065FD58D065DD503B0BDE83040E9
:1042A000FFF79CBF05F0010001F49075054352D063
:1042B000D50705D5CB0542BF236C43F0010323642A
:1042C000550704D518B1236C43F002032364930708
:1042D00004D518B1236C43F004032364150707D5F4
:1042E00001F0200303431EBF236C43F00803236443
:1042F000236C53B3920604D58B0602D52046FFF7F4
:104300006DFF236820465B69256C03F0400305F0D0
:1043100008051D431BD0FFF75BFE23685A6955064D
:1043200010D55A69A06B22F040025A6150B1534B2C
:104330004363FEF763FB40B1A06B436B03B0BDE882
:10434000304018472046FFF73FFF03B030BDFFF76E
:104350003BFF2564F9E7206B012855D1D00653D5E2
:10436000CD0651D5002101911A6801925A68019237
:10437000019A5A6912F040022AD0A06B0268526872
:1043800092B2002AE1D0A58D9542DED9E2858269FC
:10439000202A15D0DA6822F48072DA605A6922F095
:1043A00001025A615A6922F040025A61202284F8BF
:1043B0003E202163DA6822F01002DA60FEF700FB8B
:1043C000E38DA18DC91A89B22046FFF706FFBCE72D
:1043D000E18D88B2E18D89B20029B6D0A18D091A8C
:1043E00089B20029B1D0D86820F49070D86058699B
:1043F00020F001005861202084F83E002263DA6832
:1044000022F01002DA60DFE7100626D50D0624D56B
:1044100094F83D20212A98D1A168226AB1F5805FE5
:1044200016D12169A1B932F8021BC1F30801596004
:104430002262E28C013A92B2E284002A85D1DA68E3
:1044400022F08002DA60DA6842F04002DA607CE74B
:10445000511C216212785A60EBE750067FF575AF68
:104460004A067FF572AFDA68204622F04002DA6031
:10447000202384F83D30FFF7A6FE66E7CB41000815
:10448000C28582858162034622220020186483F857
:104490003C0083F83E201B68DA6842F48072DA60E0
:1044A0005A6942F001025A61DA6842F02002DA6089
:1044B000704770B490F83E60202E10D161B15AB1AF
:1044C00090F83C40012C0AD0012480F83C400024A4
:1044D000046370BCFFF7D4BF012070BC704702209A
:1044E000FBE70000EFF3058313B16FF005007047A1
:1044F000EFF31083002BF8D1074B1868022806D180
:10450000EFF31183002BF0D14FF0FF3070470028FC
:10451000FAD101221A607047D403002010B5EFF3DE
:10452000058313B16FF0050010BDEFF31084002C6C
:10453000F8D1094B1A68022A06D1EFF31183002B38
:10454000F0D14FF0FF30EFE7012AFAD102221A60D2
:1045500000F0A0FD2046E7E7D4030020F0B51446A4
:10456000002287B00B460592EFF3058252BBEFF3B2
:1045700010823ABB264A1268022A02D1EFF3118256
:1045800002BBF8B100228DF81320002C30D0216836
:1045900009B90DF11301A569002D08BF18256A1E80
:1045A000372AAC462AD86268D20727D4666966B132
:1045B000B208D4E9027E57B1BEF15B0F02D924697B
:1045C00004B1EEB9059807B0F0BD8022F1E7BEF165
:1045D000000FF7D12469002CF4D105ACCDE900C45B
:1045E00092B200F02AFD01281CBF00230593E9E7E1
:1045F0004FF0180C80220DF11301EEE70020E2E7E6
:10460000CDE90147009500F0E1FC0590DAE700BF35
:10461000D403002008B5EFF3058313B16FF0050054
:1046200008BDEFF31083002BF8D1074B1B68022B5A
:1046300003D1EFF31183002BF0D10028F0D000F06C
:104640007FFE0020ECE700BFD4030020034B036093
:10465000034B0B6080231360704700BF780300207A
:1046600078010020034B0360034B0B604FF4807311
:1046700013607047D8070020D80300204FF0FF32A6
:1046800000F10803C0E902234360036100230360D3
:10469000704700230361704743689A684B608A60E3
:1046A0009A6851609960036808610133036070473C
:1046B00030B50C68631C0AD103695A684A6091607E
:1046C0008B605960036808610133036030BD00F1FD
:1046D0000802134652681568A542FAD9EDE7036946
:1046E000D0E901128A6051605968814208BF5A605E
:1046F000002202611A68013A1A601868704710B502
:10470000044601F0D7F9A46B01F0F6F9B4FA84F08D
:10471000400910BDF8B51546026C0446866B52B9C7
:10472000076847BB406800F043FF054667600136F5
:104730002846A663F8BD65B9806801F051FDA368FD
:10474000226C13446268A3609342F0D32368A36091
:10475000EDE7C06801F044FD226CE36851429B1A0A
:104760002268E36093423EBF63685B18E360022DFA
:1047700001D116B1013E0025D9E73546D7E70346FA
:104780001A6C084610B462B1DC68596814448C4253
:1047900028BF1968DC6028BFD960D96810BC01F057
:1047A0001FBD10BC704770B5044601F083F994F842
:1047B000455004F124066DB2002D14DCFF2384F86B
:1047C000453001F099F901F075F994F8445004F17D
:1047D00010066DB2002D12DCFF2384F84430BDE8D2
:1047E000704001F089B9636A002BE7D0304600F0D1
:1047F00041FE08B100F0C6FE013D6DB2DCE7236961
:10480000002BE9D0304600F035FE08B100F0BAFECA
:10481000013D6DB2DEE7000038B50D46044640B9F3
:104820004FF0500383F31188BFF36F8FBFF34F8FA7
:10483000FEE701F03FF9D4E90F314B432268D0186D
:104840005B1A13446060E3600020FF23A063A26052
:1048500084F8443084F8453095B9236963B104F194
:10486000100000F007FE38B14FF08052094B1A607B
:10487000BFF34F8FBFF36F8F01F03EF9012038BDBA
:1048800004F11000FFF7FAFE04F12400FFF7F6FE32
:10489000F2E700BF04ED00E037B50D461C4640B915
:1048A0004FF0500383F31188BFF36F8FBFF34F8F27
:1048B000FEE743B94FF0500383F31188BFF36F8FC6
:1048C000BFF34F8FFEE74AB191B94FF0500383F326
:1048D0001188BFF36F8FBFF34F8FFEE741B14FF0E9
:1048E000500383F31188BFF36F8FBFF34F8FFEE741
:1048F00050230193019B502B08D04FF0500383F3BA
:104900001188BFF36F8FBFF34F8FFEE70121002D9A
:1049100008BF2246C4E90F0584F8461020462260ED
:10492000FFF77AFF20469DF8183084F84C3003B02A
:1049300030BD00002DE9FF4788461F46044601921E
:1049400040B94FF0500383F31188BFF36F8FBFF36B
:104950004F8FFEE751B9036C43B14FF0500383F31F
:104960001188BFF36F8FBFF34F8FFEE7022F0BD17C
:10497000E36B012B08D04FF0500383F31188BFF392
:104980006F8FBFF34F8FFEE700F002FE064650B96F
:10499000019B4BB14FF0500383F31188BFF36F8F2E
:1049A000BFF34F8FFEE700264FF00009DFF8E4A0C9
:1049B00037E0019D1DB901F09FF8002050E016B9C5
:1049C00002A800F097FD01F097F800F0A7FB01F0B6
:1049D00071F894F84430FF2B08BF84F8449094F8A1
:1049E0004530FF2B08BF84F8459001F085F801A9F8
:1049F00002A800F08BFD002846D101F05BF8A26B05
:104A0000E36B9A422FD101F077F8019904F110007D
:104A100000F0F6FC2046FFF7C6FE00F01DFC50B388
:104A2000012601F047F8A26BE36B9A4201D3022FF3
:104A3000BFD13A4641462046FFF76CFE636A1BB180
:104A400004F1240000F016FD38B14FF08052114BF4
:104A50001A60BFF34F8FBFF36F8F01F04DF8012045
:104A600004B0BDE8F08701F047F82046FFF79BFE51
:104A700000F0F2FBD4E74FF08053CAF80030BFF3E8
:104A80004F8FBFF36F8FCBE72046FFF78CFE00F010
:104A9000E3FB92E704ED00E02DE9F84389469046F8
:104AA0001F46044640B94FF0500383F31188BFF30B
:104AB0006F8FBFF34F8FFEE751B9036C43B14FF0D7
:104AC000500383F31188BFF36F8FBFF34F8FFEE75F
:104AD000022F0BD1E36B012B08D04FF0500383F36F
:104AE0001188BFF36F8FBFF34F8FFEE701F0C2F85D
:104AF000EFF311864FF0500383F31188BFF36F8FEC
:104B0000BFF34F8FA26BE36B9A4201D3022F22D1E6
:104B100094F845503A46494620466DB2FFF7FAFDF3
:104B20006B1C13D1636A0BB901200BE004F1240064
:104B300000F0A0FC0028F7D0B8F1000FF4D001205D
:104B4000C8F8000086F31188BDE8F88301356DB21E
:104B500084F84550E8E70020F4E700002DE9F04331
:104B600085B00F460446019240B94FF0500383F3DD
:104B70001188BFF36F8FBFF34F8FFEE751B9036CFE
:104B800043B14FF0500383F31188BFF36F8FBFF32E
:104B90004F8FFEE700F0FCFC064650B9019B4BB17D
:104BA0004FF0500383F31188BFF36F8FBFF34F8F24
:104BB000FEE700264FF00008DFF8DC903BE0019DA7
:104BC0001DB900F099FF002052E016B902A800F0CC
:104BD00091FC00F091FF00F0A1FA00F06BFF94F857
:104BE0004430FF2B08BF84F8448094F84530FF2BF5
:104BF00008BF84F8458000F07FFF01A902A800F0FB
:104C000085FC00283DD12046FFF779FD98B3019936
:104C100004F1240000F0F4FB2046FFF7C4FD00F08F
:104C20001BFB38B94FF08053C9F80030BFF34F8FEA
:104C3000BFF36F8F012600F03DFFA56B002DBED0A6
:104C400039462046013DFFF79AFDA563236963B10C
:104C500004F1100000F00EFC38B14FF080520E4B02
:104C60001A60BFF34F8FBFF36F8F00F045FF012035
:104C700005B0BDE8F0832046FFF795FD00F0ECFAA3
:104C8000D8E72046FFF78FFD00F0E6FA2046FFF751
:104C900036FD0028CED096E704ED00E0002330B5C5
:104CA000064A52F8335002EBC3041DB942F83310E0
:104CB000606030BD0133082BF3D1FAE74CA7002028
:104CC00070B504460D46164600F0F4FE94F84430E4
:104CD000FF2B04BF002384F8443094F84530FF2BA9
:104CE00004BF002384F8453000F006FFA36B2BB906
:104CF0003246294604F1240000F09CFB2046BDE822
:104D00007040FFF750BD00002DE9F041044600F06F
:104D1000D1FE2F4B2F4D1A682F4F01321A602E688B
:104D2000002E49D12C601B68012B1FD1B84640468C
:104D30000136FFF7A3FC382E08F11408F7D1DFF88D
:104D4000C480264E4046FFF799FC3046FFF796FC9C
:104D50002348FFF793FC2348FFF790FC2248FFF716
:104D60008DFC224BC3F80080214B1E601420214A89
:104D7000136801331360204A63641168E36A8B424D
:104D800000FB037004F1040188BF1360FFF784FC8B
:104D900000F0B2FE194B1B6863B12B68DA6AE36A54
:104DA0009A4207D24FF08052154B1A60BFF34F8FD3
:104DB000BFF36F8FBDE8F081104B1B68002BD5D17E
:104DC0002B68DA6AE36A9A4298BF2C60CEE700BF8C
:104DD000A00C00203408002040080020CC0C00204B
:104DE000E80C0020140D0020000D002038080020E1
:104DF0003C080020B00C0020B40C0020FC0C00206B
:104E000004ED00E0B80C0020064A13681968064B50
:104E100019B94FF0FF321A6070471268D268D26831
:104E20005268F8E738080020E00C00202DE9F04730
:104E30000D46DDE909844FEA82094A460646A52166
:104E4000206B1F4601F0DAF9226BA9F104099144A5
:104E50006B1E29F0070904F134020F3513F8011F06
:104E600002F8011B197809B1AB42F7D1089D4FF048
:104E7000000A372D28BF3725201DC4E9135AE562E3
:104E800084F843A0FFF705FCC5F1380504F11800CC
:104E9000FFF7FFFBC4F854A03A4631464846246168
:104EA000A561646284F858A000F0DEFD2060B8F1CE
:104EB000000F01D0C8F80040BDE8F08710B590F8A9
:104EC000593004463BB9006B00F0B0FF2046BDE806
:104ED000104000F0ABBF012BF9D0022B08D04FF0EF
:104EE000500383F31188BFF36F8FBFF34F8FFEE73B
:104EF00010BD000080B5DFF85C80124F124C134DDE
:104F0000236863B9124B1B68012BF8D94FF080530B
:104F1000C8F80030BFF34F8FBFF36F8FEEE700F09C
:104F2000C9FDFB68DE68301DFFF7D9FB2B68013B2C
:104F30002B602368013B236000F0DEFD3046FFF765
:104F4000BDFFDDE7140D0020A40C0020A00C002004
:104F50004008002004ED00E0F8B50546154B164E5C
:104F60001C6830680F460430FFF7B9FB6B1C3346F2
:104F700007D137B1316811480431BDE8F840FFF777
:104F80008BBB1A686419546007D30D4A10681968FE
:104F9000BDE8F8400431FFF78BBB0A4A1068196876
:104FA0000431FFF785FB084B1A68A24288BF1C60DA
:104FB000F8BD00BF280D002034080020000D00209F
:104FC0003C08002038080020E00C002070B586B0B6
:104FD000DDE90B5445B94FF0500383F31188BFF35B
:104FE0006F8FBFF34F8FFEE744B94FF0500383F349
:104FF0001188BFF36F8FBFF34F8FFEE75C260496D7
:10500000049E5C2E08D04FF0500383F31188BFF349
:105010006F8FBFF34F8FFEE72563022584F8595049
:1050200005AD01950A9D02940095FFF7FFFE20460D
:10503000FFF76AFE059806B070BD2DE9F0430746FC
:1050400085B0900088461646994600F065FE0546F4
:10505000E8B15C2000F060FE0446A8B1002380F8AF
:1050600059300D9B056301930C9B324641460290DB
:10507000009338464B46FFF7D9FE2046FFF744FE23
:10508000012005B0BDE8F083284600F0CFFE4FF0C8
:10509000FF30F6E710B5002488B007AA06A905A8D6
:1050A000CDE90544FFF7D2FA059B079A0293069BC8
:1050B0001549CDE9004315482346FFF787FFA8B1FE
:1050C00000F00AFB012813D14FF0500383F311883D
:1050D000BFF36F8FBFF34F8F4FF0FF320C4B1A604F
:1050E0000C4B18600C4B1C6000F06CFD08B010BD40
:1050F0000130FBD14FF0500383F31188BFF36F8F62
:10510000BFF34F8FFEE700BF69770008F54E000838
:10511000E00C0020FC0C0020280D0020024A13683F
:1051200001331360704700BFAC0C0020014B1868BE
:10513000704700BF280D00202DE9F84F3B4B1B683E
:10514000002B6DD13A4B1D6801351D60BDB9394B3F
:105150001A68126842B14FF0500383F31188BFF30D
:105160006F8FBFF34F8FFEE7334A196810681860DE
:105170001160324A136801331360FFF745FE304E69
:10518000002433682F4FAB4210D92F4B1B68DA6ACB
:1051900014235343FB58022B28BF01242B4B1B68BD
:1051A000002B0CBF20460120BDE8F88FDFF884906B
:1051B000DFF8A0A0D9F800301B681BB94FF0FF330F
:1051C0003360E2E7D9F80030DB68D3F80CB0DBF8E5
:1051D0000420954201D23260D7E70BF10408404623
:1051E000FFF77DFADBF828201AB10BF11800FFF762
:1051F00076FA1423DBF82C00DAF8002041469042BE
:1052000088BFCAF8000003FB0070FFF745FA0E4B99
:10521000DBF82C201968CB6A9A4228BF0124C9E721
:105220000B4A0024136801331360B7E7AC0C00206D
:10523000280D0020380800203C080020E40C002045
:10524000E00C002040080020340800202C0D002035
:10525000A80C0020B40C00202DE9F0412F4C23684D
:1052600043B94FF0500383F31188BFF36F8FBFF33F
:105270004F8FFEE700F01EFC2368013B236024688B
:105280002CB1002400F038FC2046BDE8F081244B0E
:105290001B68002BF5D0234D234EDFF8A0801DE0C6
:1052A000EB68DC68271D04F11800FFF718FA384690
:1052B000FFF715FA1420E36A326800FB038093427B
:1052C000394688BF3360FFF7E7F9184BE26A1B687D
:1052D000DB6A9A4202D30122154B1A602B68002B1D
:1052E000DED10CB1FFF790FD124D2C6844B10127BF
:1052F0000F4EFFF721FF00B13760013CF9D12C6060
:105300000B4B1B68002BBCD04FF080520A4B1A602D
:10531000BFF34F8FBFF36F8F0124B3E7AC0C0020B6
:10532000A00C0020E80C0020B40C00203408002061
:105330002C0D0020A80C002004ED00E04008002007
:1053400008B540B94FF080520D4B1A60BFF34F8F34
:10535000BFF36F8F08BD0B4B196841B14FF050037D
:1053600083F31188BFF36F8FBFF34F8FFEE7FFF713
:10537000D5FEFFF7F1FDFFF76FFF0028E2D0E9E768
:1053800004ED00E0AC0C0020184BF0B51A68184B87
:1053900012B101221A60F0BD1A60164A142716468F
:1053A000154D2B6807FB03F15458501894B144680D
:1053B000083164680A44944208BF6268446008BFC8
:1053C0004260142202FB03625268D1680B4A1160EA
:1053D0002B60E0E743B94FF0500383F31188BFF32C
:1053E0006F8FBFF34F8FFEE7013BDBE7AC0C002074
:1053F0002C0D002040080020B40C002034080020B0
:1054000010B50C4640B94FF0500383F31188BFF339
:105410006F8FBFF34F8FFEE7054B19681831FFF709
:1054200047F92046BDE810400121FFF795BD00BFB8
:105430003408002038B50D46144640B94FF05003EB
:1054400083F31188BFF36F8FBFF34F8FFEE7084BD5
:1054500019681831FFF720F9002C214608BF2846AB
:10546000BDE8384018BF4FF0FF30FFF775BD00BFF3
:105470003408002038B5C368DC6844B94FF05003E5
:1054800083F31188BFF36F8FBFF34F8FFEE704F1F3
:1054900018052846FFF723F9104B1B68DBB9251DBB
:1054A0002846FFF71CF90E4A14201168E36A8B4264
:1054B000294688BF13600B4A00FB0320FFF7ECF876
:1054C000094BE26A1B68DB6A9A4285BF0120074BE1
:1054D0000020186038BD29460548EFE7AC0C0020D5
:1054E000B40C002040080020340800202C0D0020BF
:1054F000E80C0020034B1B680360034B1B684360F0
:10550000704700BFE40C0020280D002070B50C4649
:10551000054640B94FF0500383F31188BFF36F8FF6
:10552000BFF34F8FFEE741B94FF0500383F311886B
:10553000BFF36F8FBFF34F8FFEE700F0BBFA0F4B47
:10554000196823685A1C10D00D482E6800686A68D4
:10555000864201D08A420FD9881A83420AD95B1A3F
:10556000134428462360FFF7C5FF002400F0C4FA67
:10557000204670BD002323600124F7E7280D00209A
:10558000E40C00200122014B1A6070472C0D002012
:10559000054B1B6833B1054B1B68002B0CBF022069
:1055A0000020704701207047FC0C0020AC0C00204C
:1055B00038B508B9002038BD1B4B1C68844208D0A0
:1055C0004FF0500383F31188BFF36F8FBFF34F8FFA
:1055D000FEE7236D43B94FF0500383F31188BFF307
:1055E0006F8FBFF34F8FFEE7E16AE26C013B9142A0
:1055F0002365DFD0002BDDD1251D2846FFF76FF88E
:105600001420E36CC3F13802A261084AE362116816
:105610008B4288BF1360064A294600FB0320FFF730
:105620003BF80120C7E700BF34080020B40C00207D
:1056300040080020F7B5114C00F03CFA2568BDB9D0
:105640000F4F104E3846FFF719F83046FFF716F89F
:105650000D4B10211F600D4B0A201E600C4A0D4B94
:105660000095FFF719F9206010B10B49FFF716FB01
:1056700003B0BDE8F04000F03FBA00BF540E002078
:10568000D80D0020EC0D0020300D0020340D00203E
:10569000380D0020040E00206E770008914208B5F6
:1056A000416000610AD8D21A83699A420DD2084B30
:1056B000011D1868FEF7FCFF002008BD9A4201D2C8
:1056C000994202D2034B011DF3E70120F5E700BF29
:1056D000340D0020300D002010B588B0FFF7AAFF70
:1056E000124B1B68B3B1002407AA06A905A8CDE98F
:1056F0000544FEF7B7FF059B079A0293069B0C49EA
:10570000019302230B4800932346FFF75FFC0A4BEB
:10571000186040B94FF0500383F31188BFF36F8FC7
:10572000BFF34F8FFEE7012008B010BD540E0020DC
:105730007377000811580008580E00207FB51646F0
:1057400004461A4640B94FF0500383F31188BFF363
:105750006F8FBFF34F8FFEE70D4D286880B105298D
:10576000CDE9001602940DDCFFF712FF002302289A
:1057700018BF1A46694608BF089A2868FFF7DAF882
:1057800004B070BD00236946FFF786F9F8E700BF53
:10579000540E00202DE9F3414FF000081A4D2B68FC
:1057A0001A6832B9194A11681360296002B0BDE85D
:1057B000F081DB68DC681E68271D3846FEF78FFF26
:1057C000636A20469847E369012BE8D1A369334413
:1057D0009E4206D23946286863602461FEF768FF5E
:1057E000DDE70023324619462046CDF80080FFF75A
:1057F000A5FF0028D3D14FF0500383F31188BFF3E6
:105800006F8FBFF34F8FFEE7300D0020340D002067
:105810002DE9F04F774EDFF8EC91B04687B0336852
:10582000D3F800B0BBF1000F48D0DB68D3F800A07C
:10583000FFF774FCFFF77AFC6F4D04462B682F4688
:1058400098423DD2FFF7A6FF2C60FFF705FD4FF011
:10585000000BDFF8ACA10022DAF8000002A9FFF784
:105860007DF90028DBD0029B0498002B72DB049C9E
:105870006369002B76D1FFF759FC3B6805469842D7
:1058800001D2FFF787FF029B3D60092BE3D801A2FD
:1058900052F823F06D5900086D5900086D59000841
:1058A00057580008BB590008E15900086D59000815
:1058B0006D59000857580008BB590008DA46B7E789
:1058C0002860BBF1000F2AD0824541D8FFF7C4FC05
:1058D000D8F80030DB68DD68281DFEF700FFEB69B3
:1058E000012B18D1A9695346224628465144FFF797
:1058F000D5FE80B100235246194628460093FFF793
:105900001DFF40B94FF0500383F31188BFF36F8F31
:10591000BFF34F8FFEE728466B6A984797E7374BF0
:105920001B681A68B2FA82F25209354BAAEB0401DD
:105930001868FFF7C5F9FFF78FFC002887D14FF0F3
:105940008053C9F80030BFF34F8FBFF36F8F7EE7EE
:105950000022EAE7039B05999847029B002BFFF67C
:105960007AAF84E7201DFEF7BAFE84E7A169039BA6
:105970002A4620461944FFF791FE00283FF46BAFFA
:10598000636A20469847E369012B7FF464AF0023E4
:10599000A269039920460A44CDF800B01946FFF7E2
:1059A000CDFE00287FF457AF4FF0500383F31188EA
:1059B000BFF36F8FBFF34F8FFEE70399A16141B92A
:1059C0004FF0500383F31188BFF36F8FBFF34F8FF6
:1059D000FEE72B462A4620462944FFF75FFE3AE7BA
:1059E00094F82C30002B7FF436AF204600F01EFADE
:1059F00031E700BF300D0020000E0020340D0020E4
:105A0000540E002004ED00E006480068006880F3B2
:105A1000088862B661B6BFF34F8FBFF36F8F00DFA8
:105A200000BF000008ED00E0002382B001930D4BA1
:105A30001B68013308D04FF0500383F31188BFF384
:105A40006F8FBFF34F8FFEE74FF0500383F3118842
:105A5000BFF36F8FBFF34F8F019B002BFCD002B0C1
:105A6000704700BF540000204FF0807340F8043CA2
:105A7000054B21F0010140F8081C40F80C3C40F8AF
:105A8000202C4038704700BF295A00080000000051
:105A9000074B19680868B0E8F00F80F30988BFF376
:105AA0006F8F4FF0000080F311884EF00D0E70479D
:105AB000340800204FF0500383F31188BFF36F8F39
:105AC000BFF34F8F0A4A13680133012B13600DD1C6
:105AD000084B1B6813F0FF0F08D04FF0500383F3FF
